:020000040800F2
:10000000005000205D1B0008A11B0008A11B000878
:10001000A11B0008A11B0008A11B00080000000094
:10002000000000000000000000000000A11B00080C
:10003000A11B000800000000A11B0008A11B000874
:10004000A11B0008A11B0008A11B0008A11B0008A0
:10005000A11B0008A11B0008A11B0008A11B000890
:10006000A11B0008A11B0008A11B0008A11B000880
:10007000A11B0008A11B0008A11B0008A11B000870
:10008000A11B0008A11B0008A11B0008A11B000860
:10009000A11B0008A11B0008A11B0008A11B000850
:1000A000A11B0008A11B0008A11B0008A11B000840
:1000B000A11B0008E5180008A11B0008A11B0008EF
:1000C000A11B0008A11B0008A11B0008A11B000820
:1000D000A11B0008A11B0008A11B0008A11B000810
:1000E000A11B0008A11B0008A11B000800000000C4
:1000F0000000000000000000000000000000000000
:0C01000000000000000000005FF808F1A3
:10010C0010B5054C237833B9044B13B10448AFF345
:10011C0000800123237010BD30040020000000007B
:10012C000C010008084B10B51BB108480849AFF387
:10013C0000800848036803B910BD074B002BFBD0A7
:10014C00BDE81040184700BF000000000C0100087B
:10015C0034040020300400200000000080B483B080
:10016C0000AF7860054A7B6843F0BF6343F400330B
:10017C00D3600C37BD465DF8047B704700ED00E0A2
:10018C0080B487B000AF786000237B6100233B61B3
:10019C000F23FB607B68DB78002B3AD0274BDB68A6
:1001AC00DB4303F4E0631B0A7B617B69C3F104034B
:1001BC003B617B69FA6822FA03F3FB607B685B782E
:1001CC001A463B6902FA03F37B617B689B781A46FB
:1001DC00FB6813407A6913437B617B691B017B616C
:1001EC00174A7B681B787969C9B213440A4683F8AD
:1001FC000023134A7B681B785B09DBB218467B68CB
:10020C001B7803F01F03012101FA03F342F820309D
:10021C000FE00B497B681B785B09DBB218467B68E7
:10022C001B7803F01F0301229A4000F1200341F8D0
:10023C0023201C37BD465DF8047B704700ED00E0C1
:10024C0000E100E080B582B000AF78607B68174AAF
:10025C0093420AD14FF40070012100F0D3FC4FF40B
:10026C000070002100F0CEFC1CE07B68104A934229
:10027C000AD14FF48060012100F0C4FC4FF480607F
:10028C00002100F0BFFC0DE07B680A4A934209D1C3
:10029C004FF40040012100F0B5FC4FF40040002168
:1002AC0000F0B0FC0837BD4680BD00BF0024014003
:1002BC0000280140003C014080B485B000AF78605C
:1002CC0039600023FB600023FB727B685B68FB607A
:1002DC00FB6823F4702323F48073FB603B681A687B
:1002EC003B681B791B021343FA681343FB607B6862
:1002FC00FA685A607B689B68FB60FA68164B13407F
:10030C00FB603B68DA683B689B681A433B685B7927
:10031C005B001343FA681343FB607B68FA689A60CE
:10032C007B68DB6AFB60FB6823F47003FB603B6853
:10033C001B7C013BDAB2FB7A1343FB72FB7A1B0585
:10034C00FA681343FB607B68FA68DA621437BD46BF
:10035C005DF8047B704700BFFDF7F1FF80B483B0FC
:10036C0000AF78607B6800221A607B6800221A71EB
:10037C007B6800225A717B6800229A607B6800229D
:10038C00DA607B6801221A740C37BD465DF8047B79
:10039C00704700BF80B483B000AF78600B46FB7031
:1003AC00FB78002B06D07B689B6843F001027B68CE
:1003BC009A6005E07B689B6823F001027B689A6079
:1003CC000C37BD465DF8047B704700BF80B483B02A
:1003DC0000AF78600B46FB70FB78002B06D07B6877
:1003EC009B6843F480727B689A6005E07B689B682D
:1003FC0023F480727B689A600C37BD465DF8047BF1
:10040C00704700BF80B483B000AF78607B689B6896
:10041C0043F008027B689A600C37BD465DF8047B9C
:10042C00704700BF80B485B000AF78600023FB73C9
:10043C007B689B6803F00803002B02D00123FB733D
:10044C0001E00023FB73FB7B18461437BD465DF8B7
:10045C00047B704780B483B000AF78607B689B6886
:10046C0043F004027B689A600C37BD465DF8047B50
:10047C00704700BF80B485B000AF78600023FB7379
:10048C007B689B6803F00403002B02D00123FB73F1
:10049C0001E00023FB73FB7B18461437BD465DF867
:1004AC00047B704780B483B000AF78600B46FB7060
:1004BC00FB78002B06D07B689B6843F4A0027B681A
:1004CC009A6005E07B689B6823F4A0027B689A60C5
:1004DC000C37BD465DF8047B704700BF80B485B017
:1004EC0000AF7860084611461A460346FB700B466F
:1004FC00BB7013467B700023FB600023BB60FB7852
:10050C00092B23D97B68DB68FB60FB78A3F10A021B
:10051C0013465B001344072202FA03F3BB60BB686B
:10052C00DB43FA681340FB607978FB78A3F10A028D
:10053C0013465B00134401FA03F3BB60FA68BB6813
:10054C001343FB607B68FA68DA601EE07B681B690A
:10055C00FB60FA7813465B001344072202FA03F39C
:10056C00BB60BB68DB43FA681340FB607978FA78B0
:10057C0013465B00134401FA03F3BB60FA68BB68D3
:10058C001343FB607B68FA681A61BB78062B21D891
:10059C007B685B6BFB60BB785A1E13469B00134455
:1005AC001F2202FA03F3BB60BB68DB43FA681340FB
:1005BC00FB60F978BB785A1E13469B00134401FA72
:1005CC0003F3BB60FA68BB681343FB607B68FA6893
:1005DC005A6347E0BB780C2B21D87B681B6BFB6004
:1005EC00BB78DA1F13469B0013441F2202FA03F355
:1005FC00BB60BB68DB43FA681340FB60F978BB78DF
:10060C00DA1F13469B00134401FA03F3BB60FA682C
:10061C00BB681343FB607B68FA681A6322E07B6853
:10062C00DB6AFB60BB78A3F10D0213469B001344FD
:10063C001F2202FA03F3BB60BB68DB43FA6813406A
:10064C00FB60F978BB78A3F10D0213469B001344B1
:10065C0001FA03F3BB60FA68BB681343FB607B6869
:10066C00FA68DA621437BD465DF8047B704700BF48
:10067C0080B483B000AF78607B681A684FF6FE7365
:10068C0013407A6813607B6800221A607B68002232
:10069C005A607B6800229A607B680022DA607B6873
:1006AC00434A934206D1434A424B5B6843F00F03E3
:1006BC00536077E07B68404A934206D13D4A3D4BFC
:1006CC005B6843F0F00353606CE07B683B4A9342F9
:1006DC0006D1384A374B5B6843F47063536061E072
:1006EC007B68374A934206D1324A324B5B6843F4FB
:1006FC007043536056E07B68324A934206D12D4AD0
:10070C002C4B5B6843F4702353604BE07B682E4AA0
:10071C00934206D1274A274B5B6843F4700353601E
:10072C0040E07B68294A934206D1224A214B5B6800
:10073C0043F07063536035E07B68254A934206D1E1
:10074C00244A244B5B6843F00F0353602AE07B6818
:10075C00214A934206D11F4A1E4B5B6843F0F003BB
:10076C0053601FE07B681D4A934206D1194A194B0E
:10077C005B6843F47063536014E07B68184A9342DF
:10078C0006D1144A134B5B6843F47043536009E081
:10079C007B68144A934205D10E4A0E4B5B6843F4B6
:1007AC00702353600C37BD465DF8047B704700BF67
:1007BC0008000240000002401C00024030000240D1
:1007CC0044000240580002406C000240800002408D
:1007DC0008040240000402401C04024030040240A1
:1007EC00440402405804024080B485B000AF7860E5
:1007FC0039600023FB607B681B68FB60FB6823F49B
:10080C00FF4323F07003FB603B689A683B681B6AEC
:10081C001A433B681B691A433B685B691A433B6884
:10082C009B691A433B68DB691A433B685B6A1A4352
:10083C003B689B6A1343FA681343FB607B68FA6856
:10084C001A603B68DA687B685A603B681A687B6898
:10085C009A603B685A687B68DA601437BD465DF86D
:10086C00047B704780B483B000AF78600B46FB709C
:10087C00FB78002B06D07B681B6843F001027B6879
:10088C001A6006E07B681A684FF6FE7313407A68AC
:10089C0013600C37BD465DF8047B704780B489B09B
:1008AC0000AF786039600023FB6100233B610023BB
:1008BC00BB610023FB6000237B610023BB603B68B2
:1008CC00DB7803F00F03FB613B68DB7803F010036C
:1008DC00002B05D03B689B781A46FB691343FB61E0
:1008EC003B681B88DBB2002B44D07B681B687B61A8
:1008FC000023BB6138E0BB69012202FA03F3FB6001
:10090C003B681B881A46FB6813403B613A69FB68DD
:10091C009A4226D1BB699B00FB60FB680F2202FA4E
:10092C0003F3BB60BB68DB437A6913407B61FB68F4
:10093C00FA6902FA03F37A6913437B613B68DB784B
:10094C00282B05D1BB6901229A407B685A6108E0CB
:10095C003B68DB78482B04D1BB6901229A407B6849
:10096C001A61BB690133BB61BB69072BC3D97B68B7
:10097C007A691A603B681B88FF2B4AD97B685B68D5
:10098C007B610023BB613EE0BB6908331A4601233F
:10099C009340FB603B681B881A46FB6813403B6125
:1009AC003A69FB689A422BD1BB699B00FB60FB68E0
:1009BC000F2202FA03F3BB60BB68DB437A69134076
:1009CC007B61FB68FA6902FA03F37A6913437B6172
:1009DC003B68DB78282B07D1BB6908331A46012307
:1009EC0003FA02F27B685A613B68DB78482B07D12B
:1009FC00BB6908331A46012303FA02F27B681A61B9
:100A0C00BB690133BB61BB69072BBDD97B687A69B4
:100A1C005A602437BD465DF8047B704780B483B0C0
:100A2C0000AF78600B467B807A887B681A610C3744
:100A3C00BD465DF8047B704780B487B000AF78602A
:100A4C000B46FB7000233B610023FB6000237B61A2
:100A5C000023BB607B68002B03DA2E4BDB697B61C8
:100A6C0002E02C4B5B687B617B6803F470231B0CEE
:100A7C00BB607B689BB23B617B6803F44013B3F5AE
:100A8C00401F0AD17B6923F070637B61214A214BA3
:100A9C005B6823F07063536021E07B6803F4801380
:100AAC00002B0ED0BB68032202FA03F3FB60FB6839
:100ABC00DB437A6913407B617B6943F070637B6134
:100ACC000DE07B685B0D1B011A463B699340DB43D1
:100ADC007A6913407B617B6943F070637B61FB78BF
:100AEC00002B08D07B685B0D1B011A463B699340B9
:100AFC007A6913437B617B68002B03DA054A7B69B7
:100B0C00D36102E0034A7B6953601C37BD465DF834
:100B1C00047B70470000014080B485B000AF786062
:100B2C000023FB60094B5B68FB60FB6823F44043CC
:100B3C00FB60FA687B681343FB60044AFB685360F4
:100B4C001437BD465DF8047B704700BF00100240AF
:100B5C0080B483B000AF78600B46FB70FB78002B41
:100B6C0006D00949084B5A697B6813434B6106E070
:100B7C000549054B5A697B68DB4313404B610C37C5
:100B8C00BD465DF8047B70470010024080B483B012
:100B9C0000AF78600B46FB70FB78002B06D0094940
:100BAC00084B9A697B6813438B6106E00549054B3A
:100BBC009A697B68DB4313408B610C37BD465DF84B
:100BCC00047B70470010024080B483B000AF7860A3
:100BDC000B46FB70FB78002B06D00949084BDA69F1
:100BEC007B681343CB6106E00549054BDA697B68EA
:100BFC00DB431340CB610C37BD465DF8047B70477B
:100C0C000010024080B483B000AF78600B46FB70DC
:100C1C00FB78002B06D00949084BDA687B68134334
:100C2C00CB6006E00549054BDA687B68DB43134073
:100C3C00CB600C37BD465DF8047B7047001002405A
:100C4C0080B485B000AF786039600023FB817B688D
:100C5C001B88FB817B682E4A934213D07B682D4AFC
:100C6C0093420FD07B68B3F1804F0BD07B682A4A3C
:100C7C00934207D07B68294A934203D07B68284A69
:100C8C00934208D1FB8923F07003FB813B685A889F
:100C9C00FB891343FB817B68224A93420CD07B680F
:100CAC00214A934208D0FB8923F44073FB813B68B3
:100CBC00DA88FB891343FB817B68FA891A803B68CD
:100CCC009A887B689A853B681A887B681A857B684A
:100CDC000F4A93420FD07B680E4A93420BD07B682D
:100CEC00124A934207D07B68114A934203D07B6827
:100CFC00104A934204D13B681B7A9AB27B681A86DD
:100D0C007B6801229A821437BD465DF8047B7047DC
:100D1C00002C014000340140000400400008004059
:100D2C00000C004000100040001400400040014046
:100D3C00004401400048014080B485B000AF7860A9
:100D4C00396000237B810023FB810023BB817B68FE
:100D5C001B8C9BB223F001039AB27B681A847B68CC
:100D6C001B8CFB817B689B88BB817B681B8B7B818D
:100D7C007B8923F070037B817B8923F003037B81C8
:100D8C003B681A887B8913437B81FB8923F0020320
:100D9C00FB813B681A89FB891343FB813B685A88AA
:100DAC00FB891343FB817B68244A93420FD07B68F9
:100DBC00234A93420BD07B68224A934207D07B682C
:100DCC00214A934203D07B68204A934223D1FB896A
:100DDC0023F00803FB813B685A89FB891343FB8191
:100DEC00FB8923F00403FB813B689A88FB8913433E
:100DFC00FB81BB8923F48073BB81BB8923F4007313
:100E0C00BB813B689A89BB891343BB813B68DA89F8
:100E1C00BB891343BB817B68BA899A807B687A89CA
:100E2C001A833B68DA887B689A867B68FA891A840D
:100E3C001437BD465DF8047B704700BF002C0140A1
:100E4C000034014000400140004401400048014092
:100E5C0080B485B000AF7860396000237B810023BB
:100E6C00FB810023BB817B681B8C9BB223F48073BA
:100E7C009AB27B681A847B681B8CFB817B689B888D
:100E8C00BB817B689B8B7B817B8923F070037B818F
:100E9C007B8923F003037B813B681A887B8913438E
:100EAC007B81FB8923F40073FB813B681B891B024C
:100EBC009AB2FB891343FB813B685B881B029AB295
:100ECC00FB891343FB817B68224A934203D07B68E6
:100EDC00214A93422BD1FB8923F40063FB813B68AD
:100EEC005B891B029AB2FB891343FB81FB8923F4B8
:100EFC008063FB813B689B881B029AB2FB8913437E
:100F0C00FB81BB8923F48053BB81BB8923F4005341
:100F1C00BB813B689B891B019AB2BB891343BB8184
:100F2C003B68DB891B019AB2BB891343BB817B688D
:100F3C00BA899A807B687A899A833B68DA887B685D
:100F4C009A877B68FA891A841437BD465DF8047B4E
:100F5C00704700BF002C01400034014080B485B0C4
:100F6C0000AF786039600023BB8100237B810023B4
:100F7C00FB817B681B8C9BB223F480539AB27B68F9
:100F8C001A847B681B8C7B817B689B88FB817B68CC
:100F9C009B8BBB81BB8923F4E043BB81BB8923F4CE
:100FAC004073BB813B681B881B029AB2BB891343FD
:100FBC00BB817B8923F400537B813B681B891B031A
:100FCC009AB27B8913437B813B685B881B039AB283
:100FDC007B8913437B817B68124A934203D07B68E5
:100FEC00114A93420AD1FB8923F48043FB813B686D
:100FFC009B899B019AB2FB891343FB817B68FA891D
:10100C009A807B68BA899A833B68DA887B68A3F8F4
:10101C0040207B687A891A841437BD465DF8047BBE
:10102C00704700BF002C01400034014080B483B0F5
:10103C0000AF786039603B681A883B685B88134363
:10104C009AB23B689B8813439AB23B68DB88134384
:10105C009AB23B681B8913439AB23B685B89134372
:10106C009AB23B689B8913439AB27B68A3F84420DD
:10107C000C37BD465DF8047B704700BF80B483B06D
:10108C0000AF78600B46FB70FB78002B08D07B68B8
:10109C001B889BB243F001039AB27B681A8007E06D
:1010AC007B681B889BB223F001039AB27B681A8081
:1010BC000C37BD465DF8047B704700BF80B483B02D
:1010CC0000AF78600B46FB70FB78002B0CD07B6874
:1010DC00B3F844309BB26FEA43436FEA53439AB27E
:1010EC007B68A3F8442009E07B68B3F844309BB2DA
:1010FC00C3F30E039AB27B68A3F844200C37BD46A9
:10110C005DF8047B704700BF80B483B000AF78609B
:10111C000B467B8013467B707B78002B08D07B685A
:10112C009B899AB27B8813439AB27B689A8109E0B7
:10113C007B689B899AB27B88DB439BB213409AB243
:10114C007B689A810C37BD465DF8047B704700BF05
:10115C0080B485B000AF78600B467B800023FB81A8
:10116C007B681B8BFB81FB8923F00803FB81FA89CD
:10117C007B881343FB817B68FA891A831437BD463D
:10118C005DF8047B704700BF80B485B000AF786019
:10119C000B467B800023FB817B689B8BFB81FB894F
:1011AC0023F00803FB81FA897B881343FB817B685E
:1011BC00FA899A831437BD465DF8047B704700BFEB
:1011CC0080B485B000AF78600B467B800023FB8138
:1011DC007B689B8BFB81FB8923F40063FB817B8801
:1011EC001B029AB2FB891343FB817B68FA899A83B1
:1011FC001437BD465DF8047B704700BF80B483B0E4
:10120C0000AF78600B467B807B88DB439AB27B68AF
:10121C001A820C37BD465DF8047B704780B483B0EE
:10122C0000AF78600B467B807B88DB439AB27B688F
:10123C001A820C37BD465DF8047B704780B500AF51
:10124C00154A154B1B6843F0010313601249124BEE
:10125C005A68124B13404B600F4A0F4B1B6823F01C
:10126C00847323F4803313600B4A0B4B1B6823F4F9
:10127C0080231360084A084B5B6823F4FE03536019
:10128C00054B4FF41F029A6000F00CF8044B4FF022
:10129C0000629A6080BD00BF001002400000FFF8A1
:1012AC0000ED00E080B500AF00F002F880BD00BF9B
:1012BC0080B483B000AF00237B6000233B603A4ACC
:1012CC00394B1B6843F480331360374B1B6803F4B2
:1012DC0000333B607B6801337B603B68002B03D1A0
:1012EC007B68B3F5A06FF0D12F4B1B6803F4003370
:1012FC00002B02D001233B6001E000233B603B68E4
:10130C00012B4BD1294A294B1B6843F01003136066
:10131C00264A264B1B6823F003031360234A234BF6
:10132C001B6843F0020313601F4A1F4B5B6853603A
:10133C001D4A1D4B5B6853601B4A1B4B5B6843F497
:10134C0080635360184A184B5B6823F47C1353601A
:10135C00154A154B5B6843F4E8135360124A124B61
:10136C001B6843F08073136000BF0F4B1B6803F0C6
:10137C000073002BF9D00C4A0B4B5B6823F0030372
:10138C005360094A084B5B6843F00203536000BF8B
:10139C00054B5B6803F00C03082BF9D10C37BD46E9
:1013AC005DF8047B704700BF001002400020024033
:1013BC0080B483B000AF03463960FB7197F90730F6
:1013CC00002B0BDA0D49FB7903F00F03043B3A6851
:1013DC00D2B21201D2B20B441A7609E0084997F93D
:1013EC0007303A68D2B21201D2B20B4483F8002310
:1013FC000C37BD465DF8047B704700BF00ED00E084
:10140C0000E100E080B582B000AF78607B68B3F19A
:10141C00807F01D3012311E00A4A7B6823F07F43CC
:10142C00013B53604FF0FF300F21FFF7C1FF054B1D
:10143C0000229A60034B07221A60002318460837D3
:10144C00BD4680BD10E000E080B590B000AF01203B
:10145C000121FFF77DFB4448FFF70AF9434B7B6101
:10146C00434BBB610023FB6105233B6200237B6282
:10147C008023BB624FF48073FB624FF480633B6349
:10148C0020237B634FF40053BB630023FB6307F102
:10149C00140335481946FFF7A7F933480121FFF724
:1014AC00E1F94FF400700121FFF770FB3148FEF7B2
:1014BC00C9FE3B461846FEF751FF00233B60012353
:1014CC003B7101237B714FF46023BB600023FB60F5
:1014DC0005233B743B4627481946FEF7EDFE4FF4B7
:1014EC008040FFF719FB2348002101220123FEF75E
:1014FC00F5FF2048012102220123FEF7EFFF1D48D2
:10150C00022103220123FEF7E9FF1A4803210422DA
:10151C000123FEF7E3FF1748042105220123FEF700
:10152C00DDFF14480121FEF735FF12480121FEF7BB
:10153C004DFF1048FEF766FF00BF0E48FEF772FF26
:10154C000346002BF9D10B48FEF784FF00BF094876
:10155C00FEF790FF0346002BF9D106480121FEF758
:10156C00A1FF4037BD4680BD080002404C2401401D
:10157C00780400200024014080B58CB000AF02201C
:10158C000121FFF721FB0023BB842023FB844FF4B4
:10159C0034633B8500237B85002387F82C3007F1CF
:1015AC00240346481946FFF74BFB6023BB820123FB
:1015BC00FB8200233B834FF47A737B830023BB8332
:1015CC000023FB8300233B8400237B8407F114035B
:1015DC003A481946FFF7B0FB4FF47A737B8307F157
:1015EC00140336481946FFF733FC4FF47A737B83A8
:1015FC0007F1140331481946FFF7B0FC2F480821B6
:10160C00FFF7A6FD2D480821FFF7BEFD2B4808214A
:10161C00FFF7D6FD4FF40063BB804FF48063FB8073
:10162C004FF480733B8140237B814FF48053BB810B
:10163C000023FB8100233B823B1D20481946FFF70A
:10164C00F5FC1E488021FFF7E9FD1C488021012292
:10165C00FFF75AFD19480121FFF7D0FD174801216A
:10166C00FFF7DCFD154801210122FFF74DFD134862
:10167C000121FFF703FD11480121FFF71FFD4FF476
:10168C00A060FEF76BFD18233B7000237B700023DA
:10169C00BB700123FB703B461846FEF771FD1D2302
:1016AC003B7001237B700023BB700123FB703B4616
:1016BC001846FEF765FD3037BD4680BD000400407E
:1016CC0080B582B000AF1F23BB800023FB713B1D94
:1016DC0026481946FFF7E2F825480121FFF7ACF937
:1016EC004023BB801823FB710323BB713B1D1F4898
:1016FC001946FFF7D3F80323BB801823FB71032390
:10170C00BB713B1D1B481946FFF7C8F84FF48053BB
:10171C00BB804823FB713B1D16481946FFF7BEF8EA
:10172C000423BB800323BB711023FB713B1D1148A9
:10173C001946FFF7B3F8A023BB800323BB7110231A
:10174C00FB713B1D09481946FFF7A8F84FF460439D
:10175C00BB800423FB710323BB713B1D0648194658
:10176C00FFF79CF80837BD4680BD00BF000801405C
:10177C00000C1A00000C01400010014080B500AFB5
:10178C00094B1B68094AA2FB03235B091846FFF7A8
:10179C0039FE0346002B00D0FEE74FF0FF3000214E
:1017AC00FFF706FE80BD00BF000000201F85EB5137
:1017BC0080B400AFBD465DF8047B704780B400AFC9
:1017CC00BD465DF8047B704780B483B000AF3B4BE3
:1017DC001B68FB80FB889B09FB80FB8803F4407330
:1017EC00B3F5807F21D0B3F5807F02DC002B07D0CE
:1017FC005EE0B3F5007F2ED0B3F5407F42D057E0CA
:10180C00FB88DBB21A462E4B33F812301BB22D4A32
:10181C001360FB88DBB2DB43DBB21A46284B33F890
:10182C0012301BB2284A136042E0FB88DBB2DB4368
:10183C00DBB21A46224B33F812301BB2214A13602A
:10184C00FB88DBB21A461E4B33F812301BB25B42DC
:10185C001D4A13602CE0FB88DBB21A46184B33F898
:10186C0012301BB25B42174A1360FB88DBB2DB43BE
:10187C00DBB21A46124B33F812301BB25B42124ADF
:10188C00136015E0FB88DBB2DB43DBB21A460C4B72
:10189C0033F812301BB25B420A4A1360FB88DBB28E
:1018AC001A46074B33F812301BB2074A136000BFBD
:1018BC000C37BD465DF8047B704700BFE004002088
:1018CC00941C0008B0040020F404002080B400AF85
:1018DC00BD465DF8047B704780B500AF77480121A9
:1018EC00FFF78CFCFFF76AFF754B9B881A46754B0C
:1018FC001A60734BDB881A46734B1A60704B1B894A
:10190C001A46724B1A606F4B1B68714A13606E4B10
:10191C001B685A006B4B1B68134444F6E61202FB1F
:10192C0003F3DB136B4A1360FFF74EFF684B1B6826
:10193C00694A126802FB03F3DA13664B1B686749AA
:10194C00096801FB03F3DB131344654A1360614B15
:10195C001B68614A126802FB03F3DA135C4B1B68C9
:10196C005E49096801FB03F3DB13D31A5D4A13606C
:10197C005D4B00221A605D4B00221A605A4B1A68AC
:10198C00574B1B68D31A5A4A1360584B1A68554B5D
:10199C001B68D31A564A1360564B00221A60564BDA
:1019AC004FF448721A60534B1B684B4A126802FB87
:1019BC0003F3DA13504B1B684849096801FB03F326
:1019CC00DB13D31A4D4A13604B4B1B68424A126807
:1019DC0002FB03F3DA13474B1B684049096801FB10
:1019EC0003F3DB131344464A1360444B1B68454A0C
:1019FC001360424B1B685A10414B1B6846F6D96169
:101A0C0001FB03F3DB1313443F4A13603B4B1B688E
:101A1C005A103B4B1B6846F6D96101FB03F3DB13F1
:101A2C00D31A3A4A1360374B1B6846F6D96202FB4D
:101A3C0003F3DB1303F58043324A1360324B1B680C
:101A4C0046F6D96202FB03F3DB1303F580432E4AFF
:101A5C0013602E4B1B6846F6D96202FB03F3DB13B3
:101A6C0003F58043294A1360144A264B1B684FF434
:101A7C00B46101FB03F3DB139BB203F5B4639BB2BC
:101A8C0093870E4A204B1B684FF4B46101FB03F3A0
:101A9C00DB139BB203F5B4639BB2A2F84030074A48
:101AAC001A4B1B684FF4B46101FB03F3DB139BB2BD
:101ABC0003F5B4639BB2938680BD00BF0004004065
:101ACC00780400205804002090040020E404002036
:101ADC00B4040020AC040020F4040020B004002066
:101AEC0068040020C40400208C040020DC040020C6
:101AFC00D4040020600400206C040020EC040020BE
:101B0C009404002064040020C00400209C040020E5
:101B1C0080B500AFFFF732FEFFF7D2FDFFF794FC64
:101B2C00FFF72AFDFFF744FEFFF7D0FE0648202101
:101B3C00FEF774FF04488021FEF770FF0348042170
:101B4C00FEF76CFFFEE700BF00080140000C0140EF
:101B5C00002103E00A4B5B584350043109480A4BFF
:101B6C0042189A42F6D3094A02E0002342F8043B99
:101B7C00074B9A42F9D3FFF761FBFFF7C9FF704798
:101B8C00C01E00080000002030040020300400209B
:101B9C0000050020FEE70000024B13B1024800F0E4
:101BAC0005B8704700000000C51B00080146002066
:101BBC000246034600F016B838B5084B084DED1A2E
:101BCC00AC1018BFED1805D0013C55F8043D9847F2
:101BDC00002CF9D1BDE8384000F060B9BC1E0008FB
:101BEC00C01E00082DE9F047254C0646256888469E
:101BFC00D5F8484192469946C4B360681F2817DC53
:101C0C00411C76B104EB8003C3F888A0D4F888514A
:101C1C00012282401543022EC4F88851C3F8089162
:101C2C001ED0831C6160002044F82380BDE8F0873F
:101C3C00144B03B34FF4C870AFF300800446D0B11B
:101C4C00D5F84831002784E888003846C5F8484163
:101C5C000121C4F88871C4F88C71002EE1D0D1E751
:101C6C00D4F88C311A43C4F88C21DAE705F5A67444
:101C7C00C5F84841C1E74FF0FF30BDE8F08700BF21
:101C8C00981E0008000000000000C90092015B02D1
:101C9C002403ED03B6047F0548061107D907A208F3
:101CAC006A09330AFB0AC40B8C0C540D1C0EE30E90
:101CBC00AB0F72103A110112C8128F1355141C1568
:101CCC00E215A8166E173318F918BE19821A471B9D
:101CDC000B1CCF1C931D571E1A1FDD1F9F2061214B
:101CEC002322E522A62367242825E825A826672792
:101CFC002628E528A329612A1F2BDC2B992C552D8E
:101D0C00112ECC2E872F4130FB30B5316E3226335D
:101D1C00DF3396344D350436BA366F372438D9381C
:101D2C008C39403AF23AA53B563C073DB83D683EEB
:101D3C00173FC53F73402141CE417A422543D043E2
:101D4C007A442445CD4575461C47C34769480F491D
:101D5C00B449584AFB4A9D4B3F4CE04C814D204EB8
:101D6C00BF4E5D4FFB4F97503351CE5168520253CB
:101D7C009B533254C9546055F5558A561D57B0576C
:101D8C004258D3586459F359825A0F5B9C5B285CB8
:101D9C00B35C3E5DC75D4F5ED75E5D5FE35F6860C1
:101DAC00EB606E61F0617162F1627063EE636C64A2
:101DBC00E8646365DD655666CF664667BC67326866
:101DCC00A66819698B69FD696D6ADC6A4A6BB76B29
:101DDC00236C8E6CF86C616DC96D306E966EFB6EFB
:101DEC005E6FC16F22708370E27040719D71F971EA
:101DFC005472AE7207735E73B5730A745F74B27407
:101E0C0004755575A575F37541768D76D876227760
:101E1C006B77B377FA773F788478C77809794A7902
:101E2C008979C879057A417A7C7AB67AEE7A267BFA
:101E3C005C7B917BC57BF87B297C597C887CB67C50
:101E4C00E37C0E7D397D627D897DB07DD57DFA7D0B
:101E5C001D7E3E7E5F7E7E7E9C7EB97ED57EEF7E35
:101E6C00097F217F377F4D7F617F747F867F977FCE
:101E7C00A67FB47FC17FCD7FD87FE17FE97FF07FE4
:101E8C00F57FF97FFD7FFE7F4300000008000020F6
:101E9C00F8B500BFF8BC08BC9E467047F8B500BF4B
:081EAC00F8BC08BC9E4670471B
:081EB400A51B00083101000824
:041EBC000D0100080C
:101EC00000A24A040000000000000000F40200200C
:101ED0005C030020C403002000000000000000009C
:101EE00000000000000000000000000000000000F2
:101EF000000000000000000000000000941E000828
:101F000000000000000000000000000000000000D1
:101F100000000000000000000000000000000000C1
:101F200000000000000000000000000000000000B1
:101F300000000000000000000000000000000000A1
:101F40000000000000000000000000000000000091
:101F50000000000000000000000000000000000081
:101F60000000000000000000000000000000000071
:101F700001000000000000000E33CDAB34126DE60E
:101F8000ECDE05000B000000000000000000000077
:101F90000000000000000000000000000000000041
:101FA0000000000000000000000000000000000031
:101FB0000000000000000000000000000000000021
:101FC0000000000000000000000000000000000011
:0400000508001B5D77
:00000001FF
